{
  "_format": "hh-sol-artifact-1",
  "contractName": "CipherScribeReview",
  "sourceName": "contracts/CipherScribeReview.sol",
  "abi": [
    {
      "inputs": [],
      "stateMutability": "nonpayable",
      "type": "constructor"
    },
    {
      "inputs": [],
      "name": "InvalidMetadata",
      "type": "error"
    },
    {
      "inputs": [
        {
          "internalType": "bytes32",
          "name": "paperId",
          "type": "bytes32"
        }
      ],
      "name": "NoScoresYet",
      "type": "error"
    },
    {
      "inputs": [
        {
          "internalType": "bytes32",
          "name": "paperId",
          "type": "bytes32"
        }
      ],
      "name": "PaperAlreadyRegistered",
      "type": "error"
    },
    {
      "inputs": [
        {
          "internalType": "bytes32",
          "name": "paperId",
          "type": "bytes32"
        }
      ],
      "name": "PaperNotFound",
      "type": "error"
    },
    {
      "inputs": [
        {
          "internalType": "bytes32",
          "name": "paperId",
          "type": "bytes32"
        },
        {
          "internalType": "address",
          "name": "reviewer",
          "type": "address"
        }
      ],
      "name": "ReviewerAlreadySubmitted",
      "type": "error"
    },
    {
      "anonymous": false,
      "inputs": [
        {
          "indexed": true,
          "internalType": "bytes32",
          "name": "paperId",
          "type": "bytes32"
        },
        {
          "indexed": true,
          "internalType": "address",
          "name": "requester",
          "type": "address"
        }
      ],
      "name": "FinalScorePrepared",
      "type": "event"
    },
    {
      "anonymous": false,
      "inputs": [
        {
          "indexed": true,
          "internalType": "address",
          "name": "previousOwner",
          "type": "address"
        },
        {
          "indexed": true,
          "internalType": "address",
          "name": "newOwner",
          "type": "address"
        }
      ],
      "name": "OwnershipTransferred",
      "type": "event"
    },
    {
      "anonymous": false,
      "inputs": [
        {
          "indexed": true,
          "internalType": "bytes32",
          "name": "paperId",
          "type": "bytes32"
        },
        {
          "indexed": false,
          "internalType": "string",
          "name": "title",
          "type": "string"
        },
        {
          "indexed": false,
          "internalType": "string",
          "name": "track",
          "type": "string"
        }
      ],
      "name": "PaperRegistered",
      "type": "event"
    },
    {
      "anonymous": false,
      "inputs": [
        {
          "indexed": true,
          "internalType": "bytes32",
          "name": "paperId",
          "type": "bytes32"
        },
        {
          "indexed": false,
          "internalType": "string",
          "name": "title",
          "type": "string"
        },
        {
          "indexed": false,
          "internalType": "string",
          "name": "track",
          "type": "string"
        }
      ],
      "name": "PaperUpdated",
      "type": "event"
    },
    {
      "anonymous": false,
      "inputs": [
        {
          "indexed": true,
          "internalType": "bytes32",
          "name": "paperId",
          "type": "bytes32"
        },
        {
          "indexed": true,
          "internalType": "address",
          "name": "reviewer",
          "type": "address"
        },
        {
          "indexed": false,
          "internalType": "uint32",
          "name": "reviewCount",
          "type": "uint32"
        },
        {
          "indexed": false,
          "internalType": "uint64",
          "name": "timestamp",
          "type": "uint64"
        }
      ],
      "name": "ScoreSubmitted",
      "type": "event"
    },
    {
      "anonymous": false,
      "inputs": [
        {
          "indexed": true,
          "internalType": "bytes32",
          "name": "paperId",
          "type": "bytes32"
        },
        {
          "indexed": true,
          "internalType": "address",
          "name": "requester",
          "type": "address"
        }
      ],
      "name": "TotalHandleShared",
      "type": "event"
    },
    {
      "inputs": [],
      "name": "MAX_SCORE",
      "outputs": [
        {
          "internalType": "uint8",
          "name": "",
          "type": "uint8"
        }
      ],
      "stateMutability": "view",
      "type": "function"
    },
    {
      "inputs": [],
      "name": "MIN_SCORE",
      "outputs": [
        {
          "internalType": "uint8",
          "name": "",
          "type": "uint8"
        }
      ],
      "stateMutability": "view",
      "type": "function"
    },
    {
      "inputs": [
        {
          "internalType": "bytes32",
          "name": "paperId",
          "type": "bytes32"
        }
      ],
      "name": "getPaper",
      "outputs": [
        {
          "components": [
            {
              "internalType": "bytes32",
              "name": "paperId",
              "type": "bytes32"
            },
            {
              "internalType": "string",
              "name": "title",
              "type": "string"
            },
            {
              "internalType": "string",
              "name": "track",
              "type": "string"
            },
            {
              "internalType": "string",
              "name": "authorHash",
              "type": "string"
            },
            {
              "internalType": "uint32",
              "name": "reviewCount",
              "type": "uint32"
            },
            {
              "internalType": "uint64",
              "name": "createdAt",
              "type": "uint64"
            },
            {
              "internalType": "uint64",
              "name": "updatedAt",
              "type": "uint64"
            }
          ],
          "internalType": "struct CipherScribeReview.PaperStats",
          "name": "",
          "type": "tuple"
        }
      ],
      "stateMutability": "view",
      "type": "function"
    },
    {
      "inputs": [],
      "name": "getPaperIds",
      "outputs": [
        {
          "internalType": "bytes32[]",
          "name": "",
          "type": "bytes32[]"
        }
      ],
      "stateMutability": "view",
      "type": "function"
    },
    {
      "inputs": [
        {
          "internalType": "bytes32",
          "name": "paperId",
          "type": "bytes32"
        }
      ],
      "name": "getPlainSum",
      "outputs": [
        {
          "internalType": "uint32",
          "name": "",
          "type": "uint32"
        }
      ],
      "stateMutability": "view",
      "type": "function"
    },
    {
      "inputs": [],
      "name": "listPapers",
      "outputs": [
        {
          "components": [
            {
              "internalType": "bytes32",
              "name": "paperId",
              "type": "bytes32"
            },
            {
              "internalType": "string",
              "name": "title",
              "type": "string"
            },
            {
              "internalType": "string",
              "name": "track",
              "type": "string"
            },
            {
              "internalType": "string",
              "name": "authorHash",
              "type": "string"
            },
            {
              "internalType": "uint32",
              "name": "reviewCount",
              "type": "uint32"
            },
            {
              "internalType": "uint64",
              "name": "createdAt",
              "type": "uint64"
            },
            {
              "internalType": "uint64",
              "name": "updatedAt",
              "type": "uint64"
            }
          ],
          "internalType": "struct CipherScribeReview.PaperStats[]",
          "name": "",
          "type": "tuple[]"
        }
      ],
      "stateMutability": "view",
      "type": "function"
    },
    {
      "inputs": [],
      "name": "owner",
      "outputs": [
        {
          "internalType": "address",
          "name": "",
          "type": "address"
        }
      ],
      "stateMutability": "view",
      "type": "function"
    },
    {
      "inputs": [
        {
          "internalType": "bytes32",
          "name": "paperId",
          "type": "bytes32"
        }
      ],
      "name": "prepareFinalScore",
      "outputs": [
        {
          "internalType": "euint32",
          "name": "",
          "type": "bytes32"
        }
      ],
      "stateMutability": "nonpayable",
      "type": "function"
    },
    {
      "inputs": [],
      "name": "protocolId",
      "outputs": [
        {
          "internalType": "uint256",
          "name": "",
          "type": "uint256"
        }
      ],
      "stateMutability": "pure",
      "type": "function"
    },
    {
      "inputs": [
        {
          "internalType": "bytes32",
          "name": "paperId",
          "type": "bytes32"
        },
        {
          "internalType": "string",
          "name": "title",
          "type": "string"
        },
        {
          "internalType": "string",
          "name": "track",
          "type": "string"
        },
        {
          "internalType": "string",
          "name": "authorHash",
          "type": "string"
        }
      ],
      "name": "registerPaper",
      "outputs": [],
      "stateMutability": "nonpayable",
      "type": "function"
    },
    {
      "inputs": [],
      "name": "renounceOwnership",
      "outputs": [],
      "stateMutability": "nonpayable",
      "type": "function"
    },
    {
      "inputs": [
        {
          "internalType": "bytes32",
          "name": "",
          "type": "bytes32"
        },
        {
          "internalType": "address",
          "name": "",
          "type": "address"
        }
      ],
      "name": "reviewerHasSubmitted",
      "outputs": [
        {
          "internalType": "bool",
          "name": "",
          "type": "bool"
        }
      ],
      "stateMutability": "view",
      "type": "function"
    },
    {
      "inputs": [
        {
          "internalType": "bytes32",
          "name": "paperId",
          "type": "bytes32"
        }
      ],
      "name": "shareEncryptedTotal",
      "outputs": [
        {
          "internalType": "euint32",
          "name": "",
          "type": "bytes32"
        }
      ],
      "stateMutability": "nonpayable",
      "type": "function"
    },
    {
      "inputs": [
        {
          "internalType": "bytes32",
          "name": "paperId",
          "type": "bytes32"
        },
        {
          "internalType": "externalEuint32",
          "name": "encryptedScore",
          "type": "bytes32"
        },
        {
          "internalType": "bytes",
          "name": "inputProof",
          "type": "bytes"
        }
      ],
      "name": "submitScore",
      "outputs": [],
      "stateMutability": "nonpayable",
      "type": "function"
    },
    {
      "inputs": [
        {
          "internalType": "address",
          "name": "newOwner",
          "type": "address"
        }
      ],
      "name": "transferOwnership",
      "outputs": [],
      "stateMutability": "nonpayable",
      "type": "function"
    },
    {
      "inputs": [
        {
          "internalType": "bytes32",
          "name": "paperId",
          "type": "bytes32"
        },
        {
          "internalType": "string",
          "name": "title",
          "type": "string"
        },
        {
          "internalType": "string",
          "name": "track",
          "type": "string"
        },
        {
          "internalType": "string",
          "name": "authorHash",
          "type": "string"
        }
      ],
      "name": "updatePaperMetadata",
      "outputs": [],
      "stateMutability": "nonpayable",
      "type": "function"
    }
  ],
  "bytecode": "0x608060405234801561000f575f5ffd5b5061001933610198565b6101936100b7604080516080810182525f80825260208201819052918101829052606081019190915250604080516080810182527350157cffd6bbfa2dece204a89ec419c23ef5755d815273cd3ab3bd6bcc0c0bf3e27912a92043e817b1cf69602082015273a02cda4ca3a71d7c46997716f4283aa851c2881291810191909152731364cbbf2cdf5032c47d8226a6f6fbd2afcdacac606082015290565b80517f9e7b61f58c47dc699ac88507c4f5bb9f121c03808c5676a8078fe583e464970080546001600160a01b03199081166001600160a01b039384161790915560208301517f9e7b61f58c47dc699ac88507c4f5bb9f121c03808c5676a8078fe583e46497018054831691841691909117905560408301517f9e7b61f58c47dc699ac88507c4f5bb9f121c03808c5676a8078fe583e46497028054831691841691909117905560608301517f9e7b61f58c47dc699ac88507c4f5bb9f121c03808c5676a8078fe583e46497038054909216921691909117905550565b6101e7565b5f80546001600160a01b038381166001600160a01b0319831681178455604051919092169283917f8be0079c531659141344cd1fd0a4f28419497f9722a3daafe3b4186f6b6457e09190a35050565b611b08806101f45f395ff3fe608060405234801561000f575f5ffd5b50600436106100fb575f3560e01c80638244519511610093578063da1f12ab11610063578063da1f12ab14610228578063f20e473714610230578063f2fde38b14610245578063f76f0bef14610258575f5ffd5b806382445195146101d357806384913b86146101e65780638da5cb5b146101fb578063ad61d77e14610215575f5ffd5b806340b89270116100ce57806340b89270146101915780634d51383714610198578063697cf367146101ab578063715018a6146101cb575f5ffd5b806307af9e15146100ff578063108da0761461011457806327ff622314610156578063293b807014610170575b5f5ffd5b61011261010d3660046115a9565b610280565b005b61014161012236600461160e565b600160209081525f928352604080842090915290825290205460ff1681565b60405190151581526020015b60405180910390f35b61015e600a81565b60405160ff909116815260200161014d565b61018361017e366004611638565b61060a565b60405190815260200161014d565b61015e5f81565b6101126101a636600461164f565b610673565b6101be6101b9366004611638565b610830565b60405161014d91906117c0565b6101126108a3565b6101836101e1366004611638565b6108b6565b6101ee61096d565b60405161014d91906117d2565b5f546040516001600160a01b03909116815260200161014d565b61011261022336600461164f565b610a82565b612711610183565b610238610b3c565b60405161014d9190611835565b610112610253366004611877565b610b92565b61026b610266366004611638565b610c22565b60405163ffffffff909116815260200161014d565b5f84815260036020526040902060040154600160c01b900460ff166102ec5760405162461bcd60e51b815260206004820152601460248201527f506170657220646f6573206e6f7420657869737400000000000000000000000060448201526064015b60405180910390fd5b5f84815260016020908152604080832033845290915290205460ff16156103555760405162461bcd60e51b815260206004820152601660248201527f5573657220616c7265616479207375626d69747465640000000000000000000060448201526064016102e3565b5f84815260036020526040902046617a690361044b5760075f61037782610c3e565b60048401805491925082915f9061039590849063ffffffff16611890565b92506101000a81548163ffffffff021916908363ffffffff16021790555060018360040160048282829054906101000a900463ffffffff166103d79190611890565b82546101009290920a63ffffffff81810219909316919092169190910217905550505060048101805467ffffffffffffffff60801b1916600160801b4267ffffffffffffffff16021790555f858152600160208181526040808420338552909152909120805460ff191690911790556105a4565b5f61048b8585858080601f0160208091040260200160405190810160405280939291908181526020018383808284375f92019190915250610c5a92505050565b90505f61049782610c70565b6004840154909150640100000000900463ffffffff165f036104bf57600383018190556104d3565b6104cd836003015482610c99565b60038401555b60048381018054600192906104f7908490640100000000900463ffffffff16611890565b82546101009290920a63ffffffff8181021990931691909216919091021790555060048301805467ffffffffffffffff60801b1916600160801b4267ffffffffffffffff16021790555f878152600160208181526040808420338552909152909120805460ff19169091179055600383015461057290610cc7565b50610591836003015461058c5f546001600160a01b031690565b610cd2565b506105a0836003015433610cd2565b5050505b600481015460408051640100000000830463ffffffff168152600160801b90920467ffffffffffffffff166020830152339187917fdc0ce65a592e03a7461db5f8f60a29ce88f3ab2264acaf36976145a6b37c5d16910160405180910390a35050505050565b5f5f61061583610ce4565b905046617a6903610628575f5f5260205ff35b610636816003015433610cd2565b50604051339084907fc94049936ad38409dd37c10c2e756307f133e8b6d5a24466e67b74c2add283df905f90a36003015492915050565b50919050565b5f87815260036020526040902060040154600160c01b900460ff16156106af576040516315d5b68760e11b8152600481018890526024016102e3565b5f8590036106d057604051635e765b2560e11b815260040160405180910390fd5b5f878152600360205260409020806106e987898361194a565b50600181016106f985878361194a565b506002810161070983858361194a565b506004810180547fffffffffffffff00ffffffffffffffffffffffffffffffffffffffffffffffff600160801b6801000000000000000067ffffffffffffffff42811682026fffffffffffffffffffffffff00000000198616811792909204169190910267ffffffffffffffff60801b199091167fffffffffffffffff0000000000000000000000000000000000000000ffffffff909316929092179190911716600160c01b179055600280546001810182555f919091527f405787fa12a823e0f2b7631cc41b3ba8828b3321ca811111fa75cd3aa3bb5ace0188905560405188907f9c18c0f5ee233045b328ece38d960f871604fe9ee27d44e2b1460253538da9019061081e908a908a908a908a90611a2c565b60405180910390a25050505050505050565b6108866040518060e001604052805f81526020016060815260200160608152602001606081526020015f63ffffffff1681526020015f67ffffffffffffffff1681526020015f67ffffffffffffffff1681525090565b5f61089083610ce4565b905061089c8382610d25565b9392505050565b6108ab610fb3565b6108b45f61100c565b565b5f5f6108c183610ce4565b6004810154909150640100000000900463ffffffff165f036108f95760405163fa667db560e01b8152600481018490526024016102e3565b46617a690361090a575f5f5260205ff35b600381015461091881610cc7565b5061092e8161058c5f546001600160a01b031690565b506109398133610cd2565b50604051339085907f20e873305462929d14aa8ca16f27c2ecfb9263bc6235ce72c8e21241fa977060905f90a39392505050565b6002546060905f9067ffffffffffffffff81111561098d5761098d6118b8565b604051908082528060200260200182016040528015610a1457816020015b610a016040518060e001604052805f81526020016060815260200160608152602001606081526020015f63ffffffff1681526020015f67ffffffffffffffff1681526020015f67ffffffffffffffff1681525090565b8152602001906001900390816109ab5790505b5090505f5b60025481101561066d575f60028281548110610a3757610a37611a5d565b905f5260205f2001549050610a5c8160035f8481526020019081526020015f20610d25565b838381518110610a6e57610a6e611a5d565b602090810291909101015250600101610a19565b5f610a8c88610ce4565b90505f869003610aaf57604051635e765b2560e11b815260040160405180910390fd5b80610abb87898361194a565b5060018101610acb85878361194a565b5060028101610adb83858361194a565b5060048101805467ffffffffffffffff60801b1916600160801b4267ffffffffffffffff160217905560405188907fde3762f2a7aa2c102b74e31c6f43c5cf7749b0acd97d857cb8e742da9ce147549061081e908a908a908a908a90611a2c565b60606002805480602002602001604051908101604052809291908181526020018280548015610b8857602002820191905f5260205f20905b815481526020019060010190808311610b74575b5050505050905090565b610b9a610fb3565b6001600160a01b038116610c165760405162461bcd60e51b815260206004820152602660248201527f4f776e61626c653a206e6577206f776e657220697320746865207a65726f206160448201527f646472657373000000000000000000000000000000000000000000000000000060648201526084016102e3565b610c1f8161100c565b50565b5f5f610c2d83610ce4565b6004015463ffffffff169392505050565b5f600a63ffffffff83161115610c565750600a919050565b5090565b5f610c6783836004611073565b90505b92915050565b5f80610c8583610c80600a611193565b6111a5565b905061089c81610c945f611193565b6111d3565b5f82610cab57610ca85f611193565b92505b81610cbc57610cb95f611193565b91505b610c6783835f611201565b5f610c5682306112e4565b5f610cdd83836112e4565b5090919050565b5f8181526003602052604090206004810154600160c01b900460ff16610d2057604051637d88a75b60e11b8152600481018390526024016102e3565b919050565b610d7b6040518060e001604052805f81526020016060815260200160608152602001606081526020015f63ffffffff1681526020015f67ffffffffffffffff1681526020015f67ffffffffffffffff1681525090565b6004820154600160c01b900460ff16610daa57604051637d88a75b60e11b8152600481018490526024016102e3565b6040518060e00160405280848152602001835f018054610dc9906118cc565b80601f0160208091040260200160405190810160405280929190818152602001828054610df5906118cc565b8015610e405780601f10610e1757610100808354040283529160200191610e40565b820191905f5260205f20905b815481529060010190602001808311610e2357829003601f168201915b50505050508152602001836001018054610e59906118cc565b80601f0160208091040260200160405190810160405280929190818152602001828054610e85906118cc565b8015610ed05780601f10610ea757610100808354040283529160200191610ed0565b820191905f5260205f20905b815481529060010190602001808311610eb357829003601f168201915b50505050508152602001836002018054610ee9906118cc565b80601f0160208091040260200160405190810160405280929190818152602001828054610f15906118cc565b8015610f605780601f10610f3757610100808354040283529160200191610f60565b820191905f5260205f20905b815481529060010190602001808311610f4357829003601f168201915b5050509183525050600484015463ffffffff640100000000820416602083015267ffffffffffffffff68010000000000000000820481166040840152600160801b90910416606090910152905092915050565b5f546001600160a01b031633146108b45760405162461bcd60e51b815260206004820181905260248201527f4f776e61626c653a2063616c6c6572206973206e6f7420746865206f776e657260448201526064016102e3565b5f80546001600160a01b038381167fffffffffffffffffffffffff0000000000000000000000000000000000000000831681178455604051919092169283917f8be0079c531659141344cd1fd0a4f28419497f9722a3daafe3b4186f6b6457e09190a35050565b7f9e7b61f58c47dc699ac88507c4f5bb9f121c03808c5676a8078fe583e46497015460405163196d0b9b60e01b81525f917f9e7b61f58c47dc699ac88507c4f5bb9f121c03808c5676a8078fe583e4649700916001600160a01b039091169063196d0b9b906110ec908890339089908990600401611a91565b6020604051808303815f875af1158015611108573d5f5f3e3d5ffd5b505050506040513d601f19601f8201168201806040525081019061112c9190611ad0565b8154604051630f8e573b60e21b8152600481018390523360248201529193506001600160a01b031690633e395cec906044015f604051808303815f87803b158015611175575f5ffd5b505af1158015611187573d5f5f3e3d5ffd5b50505050509392505050565b5f610c6a8263ffffffff16600461136d565b5f826111b7576111b45f611193565b92505b816111c8576111c55f611193565b91505b610c6783835f61142a565b5f826111e5576111e25f611193565b92505b816111f6576111f35f611193565b91505b610c6783835f6114c7565b5f5f82156112145750600160f81b611217565b505f5b7f9e7b61f58c47dc699ac88507c4f5bb9f121c03808c5676a8078fe583e46497015460405163022f65e760e31b815260048101879052602481018690526001600160f81b0319831660448201527f9e7b61f58c47dc699ac88507c4f5bb9f121c03808c5676a8078fe583e4649700916001600160a01b03169063117b2f38906064015b6020604051808303815f875af11580156112b6573d5f5f3e3d5ffd5b505050506040513d601f19601f820116820180604052508101906112da9190611ad0565b9695505050505050565b5f7f9e7b61f58c47dc699ac88507c4f5bb9f121c03808c5676a8078fe583e46497008054604051635ca4b5b160e11b8152600481018690526001600160a01b03858116602483015292935091169063b9496b62906044015f604051808303815f87803b158015611352575f5ffd5b505af1158015611364573d5f5f3e3d5ffd5b50505050505050565b7f9e7b61f58c47dc699ac88507c4f5bb9f121c03808c5676a8078fe583e464970154604051639cd07acb60e01b81525f917f9e7b61f58c47dc699ac88507c4f5bb9f121c03808c5676a8078fe583e4649700916001600160a01b0390911690639cd07acb906113e29087908790600401611ae7565b6020604051808303815f875af11580156113fe573d5f5f3e3d5ffd5b505050506040513d601f19601f820116820180604052508101906114229190611ad0565b949350505050565b5f5f821561143d5750600160f81b611440565b505f5b7f9e7b61f58c47dc699ac88507c4f5bb9f121c03808c5676a8078fe583e4649701546040516304559f7160e01b815260048101879052602481018690526001600160f81b0319831660448201527f9e7b61f58c47dc699ac88507c4f5bb9f121c03808c5676a8078fe583e4649700916001600160a01b0316906304559f719060640161129a565b5f5f82156114da5750600160f81b6114dd565b505f5b7f9e7b61f58c47dc699ac88507c4f5bb9f121c03808c5676a8078fe583e464970154604051630d8c635960e21b815260048101879052602481018690526001600160f81b0319831660448201527f9e7b61f58c47dc699ac88507c4f5bb9f121c03808c5676a8078fe583e4649700916001600160a01b0316906336318d649060640161129a565b5f5f83601f840112611574575f5ffd5b50813567ffffffffffffffff81111561158b575f5ffd5b6020830191508360208285010111156115a2575f5ffd5b9250929050565b5f5f5f5f606085870312156115bc575f5ffd5b8435935060208501359250604085013567ffffffffffffffff8111156115e0575f5ffd5b6115ec87828801611564565b95989497509550505050565b80356001600160a01b0381168114610d20575f5ffd5b5f5f6040838503121561161f575f5ffd5b8235915061162f602084016115f8565b90509250929050565b5f60208284031215611648575f5ffd5b5035919050565b5f5f5f5f5f5f5f6080888a031215611665575f5ffd5b87359650602088013567ffffffffffffffff811115611682575f5ffd5b61168e8a828b01611564565b909750955050604088013567ffffffffffffffff8111156116ad575f5ffd5b6116b98a828b01611564565b909550935050606088013567ffffffffffffffff8111156116d8575f5ffd5b6116e48a828b01611564565b989b979a50959850939692959293505050565b5f81518084528060208401602086015e5f602082860101526020601f19601f83011685010191505092915050565b805182525f602082015160e0602085015261174360e08501826116f7565b90506040830151848203604086015261175c82826116f7565b9150506060830151848203606086015261177682826116f7565b91505063ffffffff608084015116608085015267ffffffffffffffff60a08401511660a085015260c08301516117b860c086018267ffffffffffffffff169052565b509392505050565b602081525f610c676020830184611725565b5f602082016020835280845180835260408501915060408160051b8601019250602086015f5b8281101561182957603f19878603018452611814858351611725565b945060209384019391909101906001016117f8565b50929695505050505050565b602080825282518282018190525f918401906040840190835b8181101561186c57835183526020938401939092019160010161184e565b509095945050505050565b5f60208284031215611887575f5ffd5b610c67826115f8565b63ffffffff8181168382160190811115610c6a57634e487b7160e01b5f52601160045260245ffd5b634e487b7160e01b5f52604160045260245ffd5b600181811c908216806118e057607f821691505b60208210810361066d57634e487b7160e01b5f52602260045260245ffd5b601f82111561194557805f5260205f20601f840160051c810160208510156119235750805b601f840160051c820191505b81811015611942575f815560010161192f565b50505b505050565b67ffffffffffffffff831115611962576119626118b8565b6119768361197083546118cc565b836118fe565b5f601f8411600181146119a7575f85156119905750838201355b5f19600387901b1c1916600186901b178355611942565b5f83815260208120601f198716915b828110156119d657868501358255602094850194600190920191016119b6565b50868210156119f2575f1960f88860031b161c19848701351681555b505060018560011b0183555050505050565b81835281816020850137505f828201602090810191909152601f909101601f19169091010190565b604081525f611a3f604083018688611a04565b8281036020840152611a52818587611a04565b979650505050505050565b634e487b7160e01b5f52603260045260245ffd5b60548110611a8d57634e487b7160e01b5f52602160045260245ffd5b9052565b8481526001600160a01b0384166020820152608060408201525f611ab860808301856116f7565b9050611ac76060830184611a71565b95945050505050565b5f60208284031215611ae0575f5ffd5b5051919050565b8281526040810161089c6020830184611a7156fea164736f6c634300081b000a",
  "linkReferences": {},
  "deployedLinkReferences": {}
}